{
  "_format": "hh-sol-artifact-1",
  "contractName": "BoopPortal",
  "sourceName": "contracts/BoopPortal.sol",
  "abi": [
    {
      "inputs": [],
      "stateMutability": "nonpayable",
      "type": "constructor"
    },
    {
      "inputs": [],
      "name": "boop",
      "outputs": [],
      "stateMutability": "nonpayable",
      "type": "function"
    },
    {
      "inputs": [
        {
          "internalType": "address",
          "name": "",
          "type": "address"
        }
      ],
      "name": "boopCount",
      "outputs": [
        {
          "internalType": "uint256",
          "name": "",
          "type": "uint256"
        }
      ],
      "stateMutability": "view",
      "type": "function"
    },
    {
      "inputs": [],
      "name": "getTotalBoops",
      "outputs": [
        {
          "internalType": "uint256",
          "name": "",
          "type": "uint256"
        }
      ],
      "stateMutability": "view",
      "type": "function"
    },
    {
      "inputs": [
        {
          "internalType": "address",
          "name": "",
          "type": "address"
        }
      ],
      "name": "userID",
      "outputs": [
        {
          "internalType": "uint256",
          "name": "",
          "type": "uint256"
        }
      ],
      "stateMutability": "view",
      "type": "function"
    }
  ],
  "bytecode": "0x608060405234801561001057600080fd5b506100596040518060400160405280601e81526020017f4920616d206120636f6e747261637420616e64204920616d20736d617274000081525061005e60201b6101ae1760201c565b6101e1565b6100fa81604051602401610072919061015f565b6040516020818303038152906040527f41304fac000000000000000000000000000000000000000000000000000000007bffffffffffffffffffffffffffffffffffffffffffffffffffffffff19166020820180517bffffffffffffffffffffffffffffffffffffffffffffffffffffffff83818316178352505050506100fd60201b60201c565b50565b60008151905060006a636f6e736f6c652e6c6f679050602083016000808483855afa5050505050565b600061013182610181565b61013b818561018c565b935061014b81856020860161019d565b610154816101d0565b840191505092915050565b600060208201905081810360008301526101798184610126565b905092915050565b600081519050919050565b600082825260208201905092915050565b60005b838110156101bb5780820151818401526020810190506101a0565b838111156101ca576000848401525b50505050565b6000601f19601f8301169050919050565b610648806101f06000396000f3fe608060405234801561001057600080fd5b506004361061004c5760003560e01c8063030fa5181461005157806323f2e9741461006f57806328a831d11461009f578063eda7794e146100a9575b600080fd5b6100596100d9565b60405161006691906104bf565b60405180910390f35b610089600480360381019061008491906103bd565b610124565b60405161009691906104bf565b60405180910390f35b6100a761013c565b005b6100c360048036038101906100be91906103bd565b610196565b6040516100d091906104bf565b60405180910390f35b600061011c6040518060400160405280601781526020017f5765206861766520256420746f74616c20626f6f707321000000000000000000815250600054610247565b600054905090565b60026020528060005260406000206000915090505481565b600160008082825461014e91906104f6565b925050819055506101946040518060400160405280600e81526020017f25732068617320626f6f70656421000000000000000000000000000000000000815250336102e3565b565b60016020528060005260406000206000915090505481565b610244816040516024016101c2919061043d565b6040516020818303038152906040527f41304fac000000000000000000000000000000000000000000000000000000007bffffffffffffffffffffffffffffffffffffffffffffffffffffffff19166020820180517bffffffffffffffffffffffffffffffffffffffffffffffffffffffff838183161783525050505061037f565b50565b6102df828260405160240161025d92919061048f565b6040516020818303038152906040527f9710a9d0000000000000000000000000000000000000000000000000000000007bffffffffffffffffffffffffffffffffffffffffffffffffffffffff19166020820180517bffffffffffffffffffffffffffffffffffffffffffffffffffffffff838183161783525050505061037f565b5050565b61037b82826040516024016102f992919061045f565b6040516020818303038152906040527f319af333000000000000000000000000000000000000000000000000000000007bffffffffffffffffffffffffffffffffffffffffffffffffffffffff19166020820180517bffffffffffffffffffffffffffffffffffffffffffffffffffffffff838183161783525050505061037f565b5050565b60008151905060006a636f6e736f6c652e6c6f679050602083016000808483855afa5050505050565b6000813590506103b7816105fb565b92915050565b6000602082840312156103cf57600080fd5b60006103dd848285016103a8565b91505092915050565b6103ef8161054c565b82525050565b6000610400826104da565b61040a81856104e5565b935061041a818560208601610588565b610423816105ea565b840191505092915050565b6104378161057e565b82525050565b6000602082019050818103600083015261045781846103f5565b905092915050565b6000604082019050818103600083015261047981856103f5565b905061048860208301846103e6565b9392505050565b600060408201905081810360008301526104a981856103f5565b90506104b8602083018461042e565b9392505050565b60006020820190506104d4600083018461042e565b92915050565b600081519050919050565b600082825260208201905092915050565b60006105018261057e565b915061050c8361057e565b9250827fffffffffffffffffffffffffffffffffffffffffffffffffffffffffffffffff03821115610541576105406105bb565b5b828201905092915050565b60006105578261055e565b9050919050565b600073ffffffffffffffffffffffffffffffffffffffff82169050919050565b6000819050919050565b60005b838110156105a657808201518184015260208101905061058b565b838111156105b5576000848401525b50505050565b7f4e487b7100000000000000000000000000000000000000000000000000000000600052601160045260246000fd5b6000601f19601f8301169050919050565b6106048161054c565b811461060f57600080fd5b5056fea2646970667358221220215746ad21e3187b44affb5954c5426705b6f322330e165f610b835bdcd23e0564736f6c63430008000033",
  "linkReferences": {},
  "deployedLinkReferences": {}
}